{
  "_format": "hh-sol-artifact-1",
  "contractName": "CertificateNFT",
  "sourceName": "contracts/EDUCHAIN NFT.sol",
  "abi": [
    {
      "inputs": [],
      "stateMutability": "nonpayable",
      "type": "constructor"
    },
    {
      "anonymous": false,
      "inputs": [
        {
          "indexed": true,
          "internalType": "address",
          "name": "owner",
          "type": "address"
        },
        {
          "indexed": true,
          "internalType": "address",
          "name": "approved",
          "type": "address"
        },
        {
          "indexed": true,
          "internalType": "uint256",
          "name": "tokenId",
          "type": "uint256"
        }
      ],
      "name": "Approval",
      "type": "event"
    },
    {
      "anonymous": false,
      "inputs": [
        {
          "indexed": true,
          "internalType": "address",
          "name": "owner",
          "type": "address"
        },
        {
          "indexed": true,
          "internalType": "address",
          "name": "operator",
          "type": "address"
        },
        {
          "indexed": false,
          "internalType": "bool",
          "name": "approved",
          "type": "bool"
        }
      ],
      "name": "ApprovalForAll",
      "type": "event"
    },
    {
      "anonymous": false,
      "inputs": [
        {
          "indexed": false,
          "internalType": "uint256",
          "name": "_fromTokenId",
          "type": "uint256"
        },
        {
          "indexed": false,
          "internalType": "uint256",
          "name": "_toTokenId",
          "type": "uint256"
        }
      ],
      "name": "BatchMetadataUpdate",
      "type": "event"
    },
    {
      "anonymous": false,
      "inputs": [
        {
          "indexed": true,
          "internalType": "uint256",
          "name": "tokenId",
          "type": "uint256"
        },
        {
          "indexed": true,
          "internalType": "address",
          "name": "student",
          "type": "address"
        },
        {
          "indexed": true,
          "internalType": "address",
          "name": "institution",
          "type": "address"
        },
        {
          "indexed": false,
          "internalType": "string",
          "name": "courseName",
          "type": "string"
        },
        {
          "indexed": false,
          "internalType": "string",
          "name": "ipfsHash",
          "type": "string"
        }
      ],
      "name": "CertificateIssued",
      "type": "event"
    },
    {
      "anonymous": false,
      "inputs": [
        {
          "indexed": true,
          "internalType": "uint256",
          "name": "tokenId",
          "type": "uint256"
        },
        {
          "indexed": true,
          "internalType": "address",
          "name": "revokedBy",
          "type": "address"
        }
      ],
      "name": "CertificateRevoked",
      "type": "event"
    },
    {
      "anonymous": false,
      "inputs": [
        {
          "indexed": true,
          "internalType": "address",
          "name": "institution",
          "type": "address"
        },
        {
          "indexed": false,
          "internalType": "string",
          "name": "name",
          "type": "string"
        }
      ],
      "name": "InstitutionAuthorized",
      "type": "event"
    },
    {
      "anonymous": false,
      "inputs": [
        {
          "indexed": true,
          "internalType": "address",
          "name": "institution",
          "type": "address"
        }
      ],
      "name": "InstitutionRevoked",
      "type": "event"
    },
    {
      "anonymous": false,
      "inputs": [
        {
          "indexed": false,
          "internalType": "uint256",
          "name": "_tokenId",
          "type": "uint256"
        }
      ],
      "name": "MetadataUpdate",
      "type": "event"
    },
    {
      "anonymous": false,
      "inputs": [
        {
          "indexed": true,
          "internalType": "address",
          "name": "previousOwner",
          "type": "address"
        },
        {
          "indexed": true,
          "internalType": "address",
          "name": "newOwner",
          "type": "address"
        }
      ],
      "name": "OwnershipTransferred",
      "type": "event"
    },
    {
      "anonymous": false,
      "inputs": [
        {
          "indexed": true,
          "internalType": "address",
          "name": "from",
          "type": "address"
        },
        {
          "indexed": true,
          "internalType": "address",
          "name": "to",
          "type": "address"
        },
        {
          "indexed": true,
          "internalType": "uint256",
          "name": "tokenId",
          "type": "uint256"
        }
      ],
      "name": "Transfer",
      "type": "event"
    },
    {
      "inputs": [
        {
          "internalType": "address",
          "name": "to",
          "type": "address"
        },
        {
          "internalType": "uint256",
          "name": "tokenId",
          "type": "uint256"
        }
      ],
      "name": "approve",
      "outputs": [],
      "stateMutability": "nonpayable",
      "type": "function"
    },
    {
      "inputs": [
        {
          "internalType": "address",
          "name": "owner",
          "type": "address"
        }
      ],
      "name": "balanceOf",
      "outputs": [
        {
          "internalType": "uint256",
          "name": "",
          "type": "uint256"
        }
      ],
      "stateMutability": "view",
      "type": "function"
    },
    {
      "inputs": [
        {
          "internalType": "address[]",
          "name": "students",
          "type": "address[]"
        },
        {
          "internalType": "string[]",
          "name": "studentNames",
          "type": "string[]"
        },
        {
          "internalType": "string[]",
          "name": "courseNames",
          "type": "string[]"
        },
        {
          "internalType": "string[]",
          "name": "grades",
          "type": "string[]"
        },
        {
          "internalType": "string[]",
          "name": "ipfsHashes",
          "type": "string[]"
        },
        {
          "internalType": "uint256[]",
          "name": "completionDates",
          "type": "uint256[]"
        },
        {
          "internalType": "string[]",
          "name": "certificateTypes",
          "type": "string[]"
        }
      ],
      "name": "batchIssueCertificates",
      "outputs": [
        {
          "internalType": "uint256[]",
          "name": "",
          "type": "uint256[]"
        }
      ],
      "stateMutability": "nonpayable",
      "type": "function"
    },
    {
      "inputs": [
        {
          "internalType": "uint256",
          "name": "",
          "type": "uint256"
        }
      ],
      "name": "certificates",
      "outputs": [
        {
          "internalType": "string",
          "name": "studentName",
          "type": "string"
        },
        {
          "internalType": "string",
          "name": "institutionName",
          "type": "string"
        },
        {
          "internalType": "string",
          "name": "courseName",
          "type": "string"
        },
        {
          "internalType": "string",
          "name": "grade",
          "type": "string"
        },
        {
          "internalType": "uint256",
          "name": "issueDate",
          "type": "uint256"
        },
        {
          "internalType": "string",
          "name": "ipfsHash",
          "type": "string"
        },
        {
          "internalType": "bool",
          "name": "isValid",
          "type": "bool"
        },
        {
          "internalType": "address",
          "name": "issuedBy",
          "type": "address"
        },
        {
          "internalType": "uint256",
          "name": "completionDate",
          "type": "uint256"
        },
        {
          "internalType": "string",
          "name": "certificateType",
          "type": "string"
        }
      ],
      "stateMutability": "view",
      "type": "function"
    },
    {
      "inputs": [
        {
          "internalType": "uint256",
          "name": "tokenId",
          "type": "uint256"
        }
      ],
      "name": "getApproved",
      "outputs": [
        {
          "internalType": "address",
          "name": "",
          "type": "address"
        }
      ],
      "stateMutability": "view",
      "type": "function"
    },
    {
      "inputs": [
        {
          "internalType": "address",
          "name": "institution",
          "type": "address"
        }
      ],
      "name": "getInstitutionStats",
      "outputs": [
        {
          "internalType": "string",
          "name": "",
          "type": "string"
        },
        {
          "internalType": "bool",
          "name": "",
          "type": "bool"
        },
        {
          "internalType": "uint256",
          "name": "",
          "type": "uint256"
        },
        {
          "internalType": "uint256",
          "name": "",
          "type": "uint256"
        }
      ],
      "stateMutability": "view",
      "type": "function"
    },
    {
      "inputs": [
        {
          "internalType": "address",
          "name": "student",
          "type": "address"
        }
      ],
      "name": "getStudentCertificates",
      "outputs": [
        {
          "internalType": "uint256[]",
          "name": "",
          "type": "uint256[]"
        }
      ],
      "stateMutability": "view",
      "type": "function"
    },
    {
      "inputs": [],
      "name": "getTotalCertificates",
      "outputs": [
        {
          "internalType": "uint256",
          "name": "",
          "type": "uint256"
        }
      ],
      "stateMutability": "view",
      "type": "function"
    },
    {
      "inputs": [
        {
          "internalType": "address",
          "name": "",
          "type": "address"
        }
      ],
      "name": "institutions",
      "outputs": [
        {
          "internalType": "string",
          "name": "name",
          "type": "string"
        },
        {
          "internalType": "string",
          "name": "email",
          "type": "string"
        },
        {
          "internalType": "bool",
          "name": "isAuthorized",
          "type": "bool"
        },
        {
          "internalType": "uint256",
          "name": "registrationDate",
          "type": "uint256"
        },
        {
          "internalType": "uint256",
          "name": "certificatesIssued",
          "type": "uint256"
        }
      ],
      "stateMutability": "view",
      "type": "function"
    },
    {
      "inputs": [
        {
          "internalType": "string",
          "name": "",
          "type": "string"
        }
      ],
      "name": "ipfsHashExists",
      "outputs": [
        {
          "internalType": "bool",
          "name": "",
          "type": "bool"
        }
      ],
      "stateMutability": "view",
      "type": "function"
    },
    {
      "inputs": [
        {
          "internalType": "address",
          "name": "owner",
          "type": "address"
        },
        {
          "internalType": "address",
          "name": "operator",
          "type": "address"
        }
      ],
      "name": "isApprovedForAll",
      "outputs": [
        {
          "internalType": "bool",
          "name": "",
          "type": "bool"
        }
      ],
      "stateMutability": "view",
      "type": "function"
    },
    {
      "inputs": [
        {
          "internalType": "address",
          "name": "student",
          "type": "address"
        },
        {
          "internalType": "string",
          "name": "studentName",
          "type": "string"
        },
        {
          "internalType": "string",
          "name": "courseName",
          "type": "string"
        },
        {
          "internalType": "string",
          "name": "grade",
          "type": "string"
        },
        {
          "internalType": "string",
          "name": "ipfsHash",
          "type": "string"
        },
        {
          "internalType": "uint256",
          "name": "completionDate",
          "type": "uint256"
        },
        {
          "internalType": "string",
          "name": "certificateType",
          "type": "string"
        }
      ],
      "name": "issueCertificate",
      "outputs": [
        {
          "internalType": "uint256",
          "name": "",
          "type": "uint256"
        }
      ],
      "stateMutability": "nonpayable",
      "type": "function"
    },
    {
      "inputs": [],
      "name": "name",
      "outputs": [
        {
          "internalType": "string",
          "name": "",
          "type": "string"
        }
      ],
      "stateMutability": "view",
      "type": "function"
    },
    {
      "inputs": [],
      "name": "owner",
      "outputs": [
        {
          "internalType": "address",
          "name": "",
          "type": "address"
        }
      ],
      "stateMutability": "view",
      "type": "function"
    },
    {
      "inputs": [
        {
          "internalType": "uint256",
          "name": "tokenId",
          "type": "uint256"
        }
      ],
      "name": "ownerOf",
      "outputs": [
        {
          "internalType": "address",
          "name": "",
          "type": "address"
        }
      ],
      "stateMutability": "view",
      "type": "function"
    },
    {
      "inputs": [
        {
          "internalType": "string",
          "name": "name",
          "type": "string"
        },
        {
          "internalType": "string",
          "name": "email",
          "type": "string"
        }
      ],
      "name": "registerInstitution",
      "outputs": [],
      "stateMutability": "nonpayable",
      "type": "function"
    },
    {
      "inputs": [],
      "name": "renounceOwnership",
      "outputs": [],
      "stateMutability": "nonpayable",
      "type": "function"
    },
    {
      "inputs": [
        {
          "internalType": "uint256",
          "name": "tokenId",
          "type": "uint256"
        }
      ],
      "name": "revokeCertificate",
      "outputs": [],
      "stateMutability": "nonpayable",
      "type": "function"
    },
    {
      "inputs": [
        {
          "internalType": "address",
          "name": "institution",
          "type": "address"
        }
      ],
      "name": "revokeInstitution",
      "outputs": [],
      "stateMutability": "nonpayable",
      "type": "function"
    },
    {
      "inputs": [
        {
          "internalType": "address",
          "name": "from",
          "type": "address"
        },
        {
          "internalType": "address",
          "name": "to",
          "type": "address"
        },
        {
          "internalType": "uint256",
          "name": "tokenId",
          "type": "uint256"
        }
      ],
      "name": "safeTransferFrom",
      "outputs": [],
      "stateMutability": "nonpayable",
      "type": "function"
    },
    {
      "inputs": [
        {
          "internalType": "address",
          "name": "from",
          "type": "address"
        },
        {
          "internalType": "address",
          "name": "to",
          "type": "address"
        },
        {
          "internalType": "uint256",
          "name": "tokenId",
          "type": "uint256"
        },
        {
          "internalType": "bytes",
          "name": "data",
          "type": "bytes"
        }
      ],
      "name": "safeTransferFrom",
      "outputs": [],
      "stateMutability": "nonpayable",
      "type": "function"
    },
    {
      "inputs": [
        {
          "internalType": "address",
          "name": "operator",
          "type": "address"
        },
        {
          "internalType": "bool",
          "name": "approved",
          "type": "bool"
        }
      ],
      "name": "setApprovalForAll",
      "outputs": [],
      "stateMutability": "nonpayable",
      "type": "function"
    },
    {
      "inputs": [
        {
          "internalType": "address",
          "name": "",
          "type": "address"
        },
        {
          "internalType": "uint256",
          "name": "",
          "type": "uint256"
        }
      ],
      "name": "studentCertificates",
      "outputs": [
        {
          "internalType": "uint256",
          "name": "",
          "type": "uint256"
        }
      ],
      "stateMutability": "view",
      "type": "function"
    },
    {
      "inputs": [
        {
          "internalType": "bytes4",
          "name": "interfaceId",
          "type": "bytes4"
        }
      ],
      "name": "supportsInterface",
      "outputs": [
        {
          "internalType": "bool",
          "name": "",
          "type": "bool"
        }
      ],
      "stateMutability": "view",
      "type": "function"
    },
    {
      "inputs": [],
      "name": "symbol",
      "outputs": [
        {
          "internalType": "string",
          "name": "",
          "type": "string"
        }
      ],
      "stateMutability": "view",
      "type": "function"
    },
    {
      "inputs": [
        {
          "internalType": "uint256",
          "name": "tokenId",
          "type": "uint256"
        }
      ],
      "name": "tokenURI",
      "outputs": [
        {
          "internalType": "string",
          "name": "",
          "type": "string"
        }
      ],
      "stateMutability": "view",
      "type": "function"
    },
    {
      "inputs": [
        {
          "internalType": "address",
          "name": "from",
          "type": "address"
        },
        {
          "internalType": "address",
          "name": "to",
          "type": "address"
        },
        {
          "internalType": "uint256",
          "name": "tokenId",
          "type": "uint256"
        }
      ],
      "name": "transferFrom",
      "outputs": [],
      "stateMutability": "nonpayable",
      "type": "function"
    },
    {
      "inputs": [
        {
          "internalType": "address",
          "name": "newOwner",
          "type": "address"
        }
      ],
      "name": "transferOwnership",
      "outputs": [],
      "stateMutability": "nonpayable",
      "type": "function"
    },
    {
      "inputs": [
        {
          "internalType": "string",
          "name": "newName",
          "type": "string"
        },
        {
          "internalType": "string",
          "name": "newEmail",
          "type": "string"
        }
      ],
      "name": "updateInstitutionInfo",
      "outputs": [],
      "stateMutability": "nonpayable",
      "type": "function"
    },
    {
      "inputs": [
        {
          "internalType": "uint256",
          "name": "tokenId",
          "type": "uint256"
        }
      ],
      "name": "verifyCertificate",
      "outputs": [
        {
          "components": [
            {
              "internalType": "string",
              "name": "studentName",
              "type": "string"
            },
            {
              "internalType": "string",
              "name": "institutionName",
              "type": "string"
            },
            {
              "internalType": "string",
              "name": "courseName",
              "type": "string"
            },
            {
              "internalType": "string",
              "name": "grade",
              "type": "string"
            },
            {
              "internalType": "uint256",
              "name": "issueDate",
              "type": "uint256"
            },
            {
              "internalType": "string",
              "name": "ipfsHash",
              "type": "string"
            },
            {
              "internalType": "bool",
              "name": "isValid",
              "type": "bool"
            },
            {
              "internalType": "address",
              "name": "issuedBy",
              "type": "address"
            },
            {
              "internalType": "uint256",
              "name": "completionDate",
              "type": "uint256"
            },
            {
              "internalType": "string",
              "name": "certificateType",
              "type": "string"
            }
          ],
          "internalType": "struct CertificateNFT.Certificate",
          "name": "",
          "type": "tuple"
        }
      ],
      "stateMutability": "view",
      "type": "function"
    },
    {
      "inputs": [
        {
          "internalType": "string",
          "name": "ipfsHash",
          "type": "string"
        }
      ],
      "name": "verifyCertificateByIPFS",
      "outputs": [
        {
          "internalType": "bool",
          "name": "exists",
          "type": "bool"
        },
        {
          "internalType": "uint256",
          "name": "tokenId",
          "type": "uint256"
        },
        {
          "components": [
            {
              "internalType": "string",
              "name": "studentName",
              "type": "string"
            },
            {
              "internalType": "string",
              "name": "institutionName",
              "type": "string"
            },
            {
              "internalType": "string",
              "name": "courseName",
              "type": "string"
            },
            {
              "internalType": "string",
              "name": "grade",
              "type": "string"
            },
            {
              "internalType": "uint256",
              "name": "issueDate",
              "type": "uint256"
            },
            {
              "internalType": "string",
              "name": "ipfsHash",
              "type": "string"
            },
            {
              "internalType": "bool",
              "name": "isValid",
              "type": "bool"
            },
            {
              "internalType": "address",
              "name": "issuedBy",
              "type": "address"
            },
            {
              "internalType": "uint256",
              "name": "completionDate",
              "type": "uint256"
            },
            {
              "internalType": "string",
              "name": "certificateType",
              "type": "string"
            }
          ],
          "internalType": "struct CertificateNFT.Certificate",
          "name": "cert",
          "type": "tuple"
        }
      ],
      "stateMutability": "view",
      "type": "function"
    }
  ],
  "bytecode": "0x60806040523480156200001157600080fd5b506040518060400160405280601b81526020017f5567616e64612041636164656d696320436572746966696361746500000000008152506040518060400160405280600781526020017f554741434552540000000000000000000000000000000000000000000000000081525081600090816200008f91906200041a565b508060019081620000a191906200041a565b505050620000c4620000b8620000d260201b60201c565b620000da60201b60201c565b600160088190555062000501565b600033905090565b6000600760009054906101000a900473ffffffffffffffffffffffffffffffffffffffff16905081600760006101000a81548173ffffffffffffffffffffffffffffffffffffffff021916908373ffffffffffffffffffffffffffffffffffffffff1602179055508173ffffffffffffffffffffffffffffffffffffffff168173ffffffffffffffffffffffffffffffffffffffff167f8be0079c531659141344cd1fd0a4f28419497f9722a3daafe3b4186f6b6457e060405160405180910390a35050565b600081519050919050565b7f4e487b7100000000000000000000000000000000000000000000000000000000600052604160045260246000fd5b7f4e487b7100000000000000000000000000000000000000000000000000000000600052602260045260246000fd5b600060028204905060018216806200022257607f821691505b602082108103620002385762000237620001da565b5b50919050565b60008190508160005260206000209050919050565b60006020601f8301049050919050565b600082821b905092915050565b600060088302620002a27fffffffffffffffffffffffffffffffffffffffffffffffffffffffffffffffff8262000263565b620002ae868362000263565b95508019841693508086168417925050509392505050565b6000819050919050565b6000819050919050565b6000620002fb620002f5620002ef84620002c6565b620002d0565b620002c6565b9050919050565b6000819050919050565b6200031783620002da565b6200032f620003268262000302565b84845462000270565b825550505050565b600090565b6200034662000337565b620003538184846200030c565b505050565b5b818110156200037b576200036f6000826200033c565b60018101905062000359565b5050565b601f821115620003ca5762000394816200023e565b6200039f8462000253565b81016020851015620003af578190505b620003c7620003be8562000253565b83018262000358565b50505b505050565b600082821c905092915050565b6000620003ef60001984600802620003cf565b1980831691505092915050565b60006200040a8383620003dc565b9150826002028217905092915050565b6200042582620001a0565b67ffffffffffffffff811115620004415762000440620001ab565b5b6200044d825462000209565b6200045a8282856200037f565b600060209050601f8311600181146200049257600084156200047d578287015190505b620004898582620003fc565b865550620004f9565b601f198416620004a2866200023e565b60005b82811015620004cc57848901518255600182019150602085019450602081019050620004a5565b86831015620004ec5784890151620004e8601f891682620003dc565b8355505b6001600288020188555050505b505050505050565b61679b80620005116000396000f3fe608060405234801561001057600080fd5b50600436106101e55760003560e01c806370a082311161010f578063b88d4fde116100a2578063d6021d9a11610071578063d6021d9a146105e7578063e985e9c51461061a578063ebc63bc01461064a578063f2fde38b1461067a576101e5565b8063b88d4fde1461054f578063c3934f0e1461056b578063c6b5c5cc1461059b578063c87b56dd146105b7576101e5565b806395d89b41116100de57806395d89b41146104b15780639763dd01146104cf578063a22cb465146104ff578063b2d9767f1461051b576101e5565b806370a082311461043b578063715018a61461046b5780637843bb79146104755780638da5cb5b14610493576101e5565b80631a2110e61161018757806342842e0e1161015657806342842e0e1461039a578063518dbd9e146103b65780636352211e146103d2578063663b3e2214610402576101e5565b80631a2110e6146103025780631c67494e1461033257806323b872dd1461034e5780634084f2911461036a576101e5565b8063081812fc116101c3578063081812fc146102545780630903f34814610284578063095ea7b3146102b65780631692a942146102d2576101e5565b806301ffc9a7146101ea57806306f5497e1461021a57806306fdde0314610236575b600080fd5b61020460048036038101906101ff919061439f565b610696565b60405161021191906143e7565b60405180910390f35b610234600480360381019061022f9190614438565b6106a8565b005b61023e610944565b60405161024b91906144f5565b60405180910390f35b61026e60048036038101906102699190614438565b6109d6565b60405161027b9190614558565b60405180910390f35b61029e600480360381019061029991906146a8565b610a1c565b6040516102ad93929190614874565b60405180910390f35b6102d060048036038101906102cb91906148de565b611073565b005b6102ec60048036038101906102e79190614438565b61118a565b6040516102f9919061491e565b60405180910390f35b61031c600480360381019061031791906146a8565b611622565b60405161032991906143e7565b60405180910390f35b61034c60048036038101906103479190614940565b611658565b005b6103686004803603810190610363919061496d565b611790565b005b610384600480360381019061037f91906149c0565b6117f0565b6040516103919190614aee565b60405180910390f35b6103b460048036038101906103af919061496d565b611e72565b005b6103d060048036038101906103cb9190614b09565b611e92565b005b6103ec60048036038101906103e79190614438565b612009565b6040516103f99190614558565b60405180910390f35b61041c60048036038101906104179190614438565b61208f565b6040516104329a99989796959493929190614b81565b60405180910390f35b61045560048036038101906104509190614940565b612440565b6040516104629190614aee565b60405180910390f35b6104736124f7565b005b61047d61250b565b60405161048a9190614aee565b60405180910390f35b61049b61251c565b6040516104a89190614558565b60405180910390f35b6104b9612546565b6040516104c691906144f5565b60405180910390f35b6104e960048036038101906104e49190614eb3565b6125d8565b6040516104f691906150c8565b60405180910390f35b61051960048036038101906105149190615116565b6128a2565b005b61053560048036038101906105309190614940565b6128b8565b604051610546959493929190615156565b60405180910390f35b61056960048036038101906105649190615258565b612a0b565b005b610585600480360381019061058091906148de565b612a6d565b6040516105929190614aee565b60405180910390f35b6105b560048036038101906105b09190614b09565b612a9e565b005b6105d160048036038101906105cc9190614438565b612c4d565b6040516105de91906144f5565b60405180910390f35b61060160048036038101906105fc9190614940565b612c5f565b60405161061194939291906152db565b60405180910390f35b610634600480360381019061062f9190615327565b612e2a565b60405161064191906143e7565b60405180910390f35b610664600480360381019061065f9190614940565b612ebe565b60405161067191906150c8565b60405180910390f35b610694600480360381019061068f9190614940565b612f55565b005b60006106a182612fd8565b9050919050565b80600073ffffffffffffffffffffffffffffffffffffffff166106ca82613039565b73ffffffffffffffffffffffffffffffffffffffff1603610720576040517f08c379a0000000000000000000000000000000000000000000000000000000008152600401610717906153b3565b60405180910390fd5b600b60003373ffffffffffffffffffffffffffffffffffffffff1673ffffffffffffffffffffffffffffffffffffffff16815260200190815260200160002060020160009054906101000a900460ff16806107ad575061077e61251c565b73ffffffffffffffffffffffffffffffffffffffff163373ffffffffffffffffffffffffffffffffffffffff16145b6107ec576040517f08c379a00000000000000000000000000000000000000000000000000000000081526004016107e39061541f565b60405180910390fd5b3373ffffffffffffffffffffffffffffffffffffffff16600a600084815260200190815260200160002060060160019054906101000a900473ffffffffffffffffffffffffffffffffffffffff1673ffffffffffffffffffffffffffffffffffffffff16148061088e575061085f61251c565b73ffffffffffffffffffffffffffffffffffffffff163373ffffffffffffffffffffffffffffffffffffffff16145b6108cd576040517f08c379a00000000000000000000000000000000000000000000000000000000081526004016108c49061548b565b60405180910390fd5b6000600a600084815260200190815260200160002060060160006101000a81548160ff0219169083151502179055503373ffffffffffffffffffffffffffffffffffffffff16827f325c62e70cfaa61cf0709d9607ea9d8451b235297c4b47c65ff6a6449c9faca460405160405180910390a35050565b606060008054610953906154da565b80601f016020809104026020016040519081016040528092919081815260200182805461097f906154da565b80156109cc5780601f106109a1576101008083540402835291602001916109cc565b820191906000526020600020905b8154815290600101906020018083116109af57829003601f168201915b5050505050905090565b60006109e182613076565b6004600083815260200190815260200160002060009054906101000a900473ffffffffffffffffffffffffffffffffffffffff169050919050565b600080610a276142c8565b600d84604051610a379190615547565b908152602001604051809103902060009054906101000a900460ff16610b215760008060405180610140016040528060405180602001604052806000815250815260200160405180602001604052806000815250815260200160405180602001604052806000815250815260200160405180602001604052806000815250815260200160008152602001604051806020016040528060008152508152602001600015158152602001600073ffffffffffffffffffffffffffffffffffffffff168152602001600081526020016040518060200160405280600081525081525092509250925061106c565b6000600190505b610b3260096130c1565b8111610fa5578480519060200120600a6000838152602001908152602001600020600501604051610b639190615601565b604051809103902003610f9257600181600a60008481526020019081526020016000208060405180610140016040529081600082018054610ba3906154da565b80601f0160208091040260200160405190810160405280929190818152602001828054610bcf906154da565b8015610c1c5780601f10610bf157610100808354040283529160200191610c1c565b820191906000526020600020905b815481529060010190602001808311610bff57829003601f168201915b50505050508152602001600182018054610c35906154da565b80601f0160208091040260200160405190810160405280929190818152602001828054610c61906154da565b8015610cae5780601f10610c8357610100808354040283529160200191610cae565b820191906000526020600020905b815481529060010190602001808311610c9157829003601f168201915b50505050508152602001600282018054610cc7906154da565b80601f0160208091040260200160405190810160405280929190818152602001828054610cf3906154da565b8015610d405780601f10610d1557610100808354040283529160200191610d40565b820191906000526020600020905b815481529060010190602001808311610d2357829003601f168201915b50505050508152602001600382018054610d59906154da565b80601f0160208091040260200160405190810160405280929190818152602001828054610d85906154da565b8015610dd25780601f10610da757610100808354040283529160200191610dd2565b820191906000526020600020905b815481529060010190602001808311610db557829003601f168201915b5050505050815260200160048201548152602001600582018054610df5906154da565b80601f0160208091040260200160405190810160405280929190818152602001828054610e21906154da565b8015610e6e5780601f10610e4357610100808354040283529160200191610e6e565b820191906000526020600020905b815481529060010190602001808311610e5157829003601f168201915b505050505081526020016006820160009054906101000a900460ff161515151581526020016006820160019054906101000a900473ffffffffffffffffffffffffffffffffffffffff1673ffffffffffffffffffffffffffffffffffffffff1673ffffffffffffffffffffffffffffffffffffffff16815260200160078201548152602001600882018054610f02906154da565b80601f0160208091040260200160405190810160405280929190818152602001828054610f2e906154da565b8015610f7b5780601f10610f5057610100808354040283529160200191610f7b565b820191906000526020600020905b815481529060010190602001808311610f5e57829003601f168201915b50505050508152505090509350935093505061106c565b8080610f9d90615647565b915050610b28565b5060008060405180610140016040528060405180602001604052806000815250815260200160405180602001604052806000815250815260200160405180602001604052806000815250815260200160405180602001604052806000815250815260200160008152602001604051806020016040528060008152508152602001600015158152602001600073ffffffffffffffffffffffffffffffffffffffff16815260200160008152602001604051806020016040528060008152508152509250925092505b9193909250565b600061107e82612009565b90508073ffffffffffffffffffffffffffffffffffffffff168373ffffffffffffffffffffffffffffffffffffffff16036110ee576040517f08c379a00000000000000000000000000000000000000000000000000000000081526004016110e590615701565b60405180910390fd5b8073ffffffffffffffffffffffffffffffffffffffff1661110d6130cf565b73ffffffffffffffffffffffffffffffffffffffff16148061113c575061113b816111366130cf565b612e2a565b5b61117b576040517f08c379a000000000000000000000000000000000000000000000000000000000815260040161117290615793565b60405180910390fd5b61118583836130d7565b505050565b6111926142c8565b81600073ffffffffffffffffffffffffffffffffffffffff166111b482613039565b73ffffffffffffffffffffffffffffffffffffffff160361120a576040517f08c379a0000000000000000000000000000000000000000000000000000000008152600401611201906153b3565b60405180910390fd5b600a600084815260200190815260200160002060405180610140016040529081600082018054611239906154da565b80601f0160208091040260200160405190810160405280929190818152602001828054611265906154da565b80156112b25780601f10611287576101008083540402835291602001916112b2565b820191906000526020600020905b81548152906001019060200180831161129557829003601f168201915b505050505081526020016001820180546112cb906154da565b80601f01602080910402602001604051908101604052809291908181526020018280546112f7906154da565b80156113445780601f1061131957610100808354040283529160200191611344565b820191906000526020600020905b81548152906001019060200180831161132757829003601f168201915b5050505050815260200160028201805461135d906154da565b80601f0160208091040260200160405190810160405280929190818152602001828054611389906154da565b80156113d65780601f106113ab576101008083540402835291602001916113d6565b820191906000526020600020905b8154815290600101906020018083116113b957829003601f168201915b505050505081526020016003820180546113ef906154da565b80601f016020809104026020016040519081016040528092919081815260200182805461141b906154da565b80156114685780601f1061143d57610100808354040283529160200191611468565b820191906000526020600020905b81548152906001019060200180831161144b57829003601f168201915b505050505081526020016004820154815260200160058201805461148b906154da565b80601f01602080910402602001604051908101604052809291908181526020018280546114b7906154da565b80156115045780601f106114d957610100808354040283529160200191611504565b820191906000526020600020905b8154815290600101906020018083116114e757829003601f168201915b505050505081526020016006820160009054906101000a900460ff161515151581526020016006820160019054906101000a900473ffffffffffffffffffffffffffffffffffffffff1673ffffffffffffffffffffffffffffffffffffffff1673ffffffffffffffffffffffffffffffffffffffff16815260200160078201548152602001600882018054611598906154da565b80601f01602080910402602001604051908101604052809291908181526020018280546115c4906154da565b80156116115780601f106115e657610100808354040283529160200191611611565b820191906000526020600020905b8154815290600101906020018083116115f457829003601f168201915b505050505081525050915050919050565b600d818051602081018201805184825260208301602085012081835280955050505050506000915054906101000a900460ff1681565b611660613190565b600b60008273ffffffffffffffffffffffffffffffffffffffff1673ffffffffffffffffffffffffffffffffffffffff16815260200190815260200160002060020160009054906101000a900460ff166116ef576040517f08c379a00000000000000000000000000000000000000000000000000000000081526004016116e69061541f565b60405180910390fd5b6000600b60008373ffffffffffffffffffffffffffffffffffffffff1673ffffffffffffffffffffffffffffffffffffffff16815260200190815260200160002060020160006101000a81548160ff0219169083151502179055508073ffffffffffffffffffffffffffffffffffffffff167f5f2c961a0db2d72fa01bfae36aaca642457678d9c63adaca86c8cb1b3d1230f460405160405180910390a250565b6117a161179b6130cf565b8261320e565b6117e0576040517f08c379a00000000000000000000000000000000000000000000000000000000081526004016117d790615825565b60405180910390fd5b6117eb8383836132a3565b505050565b6000600b60003373ffffffffffffffffffffffffffffffffffffffff1673ffffffffffffffffffffffffffffffffffffffff16815260200190815260200160002060020160009054906101000a900460ff16611881576040517f08c379a000000000000000000000000000000000000000000000000000000000815260040161187890615891565b60405180910390fd5b61188961359c565b600073ffffffffffffffffffffffffffffffffffffffff168873ffffffffffffffffffffffffffffffffffffffff16036118f8576040517f08c379a00000000000000000000000000000000000000000000000000000000081526004016118ef906158fd565b60405180910390fd5b600087511161193c576040517f08c379a000000000000000000000000000000000000000000000000000000000815260040161193390615969565b60405180910390fd5b6000865111611980576040517f08c379a0000000000000000000000000000000000000000000000000000000008152600401611977906159d5565b60405180910390fd5b60008451116119c4576040517f08c379a00000000000000000000000000000000000000000000000000000000081526004016119bb90615a41565b60405180910390fd5b600d846040516119d49190615547565b908152602001604051809103902060009054906101000a900460ff1615611a30576040517f08c379a0000000000000000000000000000000000000000000000000000000008152600401611a2790615aad565b60405180910390fd5b42831115611a73576040517f08c379a0000000000000000000000000000000000000000000000000000000008152600401611a6a90615b19565b60405180910390fd5b611a7d60096135eb565b6000611a8960096130c1565b9050604051806101400160405280898152602001600b60003373ffffffffffffffffffffffffffffffffffffffff1673ffffffffffffffffffffffffffffffffffffffff1681526020019081526020016000206000018054611aea906154da565b80601f0160208091040260200160405190810160405280929190818152602001828054611b16906154da565b8015611b635780601f10611b3857610100808354040283529160200191611b63565b820191906000526020600020905b815481529060010190602001808311611b4657829003601f168201915b505050505081526020018881526020018781526020014281526020018681526020016001151581526020013373ffffffffffffffffffffffffffffffffffffffff16815260200185815260200184815250600a60008381526020019081526020016000206000820151816000019081611bdc9190615ce5565b506020820151816001019081611bf29190615ce5565b506040820151816002019081611c089190615ce5565b506060820151816003019081611c1e9190615ce5565b506080820151816004015560a0820151816005019081611c3e9190615ce5565b5060c08201518160060160006101000a81548160ff02191690831515021790555060e08201518160060160016101000a81548173ffffffffffffffffffffffffffffffffffffffff021916908373ffffffffffffffffffffffffffffffffffffffff1602179055506101008201518160070155610120820151816008019081611cc79190615ce5565b509050506001600d86604051611cdd9190615547565b908152602001604051809103902060006101000a81548160ff021916908315150217905550600c60008a73ffffffffffffffffffffffffffffffffffffffff1673ffffffffffffffffffffffffffffffffffffffff168152602001908152602001600020819080600181540180825580915050600190039060005260206000200160009091909190915055600b60003373ffffffffffffffffffffffffffffffffffffffff1673ffffffffffffffffffffffffffffffffffffffff1681526020019081526020016000206004016000815480929190611dbb90615647565b9190505550611dca8982613601565b611df38186604051602001611ddf9190615e03565b60405160208183030381529060405261361f565b3373ffffffffffffffffffffffffffffffffffffffff168973ffffffffffffffffffffffffffffffffffffffff16827f0f4cb7466702cbf45ef6a04797d7a1a33e7ef88c307e8f8c378e642450cae06c8a89604051611e53929190615e25565b60405180910390a480915050611e676136c3565b979650505050505050565b611e8d83838360405180602001604052806000815250612a0b565b505050565b600b60003373ffffffffffffffffffffffffffffffffffffffff1673ffffffffffffffffffffffffffffffffffffffff16815260200190815260200160002060020160009054906101000a900460ff16611f21576040517f08c379a0000000000000000000000000000000000000000000000000000000008152600401611f189061541f565b60405180910390fd5b6000825111611f65576040517f08c379a0000000000000000000000000000000000000000000000000000000008152600401611f5c90615ea8565b60405180910390fd5b81600b60003373ffffffffffffffffffffffffffffffffffffffff1673ffffffffffffffffffffffffffffffffffffffff1681526020019081526020016000206000019081611fb49190615ce5565b5080600b60003373ffffffffffffffffffffffffffffffffffffffff1673ffffffffffffffffffffffffffffffffffffffff16815260200190815260200160002060010190816120049190615ce5565b505050565b60008061201583613039565b9050600073ffffffffffffffffffffffffffffffffffffffff168173ffffffffffffffffffffffffffffffffffffffff1603612086576040517f08c379a000000000000000000000000000000000000000000000000000000000815260040161207d90615f14565b60405180910390fd5b80915050919050565b600a6020528060005260406000206000915090508060000180546120b2906154da565b80601f01602080910402602001604051908101604052809291908181526020018280546120de906154da565b801561212b5780601f106121005761010080835404028352916020019161212b565b820191906000526020600020905b81548152906001019060200180831161210e57829003601f168201915b505050505090806001018054612140906154da565b80601f016020809104026020016040519081016040528092919081815260200182805461216c906154da565b80156121b95780601f1061218e576101008083540402835291602001916121b9565b820191906000526020600020905b81548152906001019060200180831161219c57829003601f168201915b5050505050908060020180546121ce906154da565b80601f01602080910402602001604051908101604052809291908181526020018280546121fa906154da565b80156122475780601f1061221c57610100808354040283529160200191612247565b820191906000526020600020905b81548152906001019060200180831161222a57829003601f168201915b50505050509080600301805461225c906154da565b80601f0160208091040260200160405190810160405280929190818152602001828054612288906154da565b80156122d55780601f106122aa576101008083540402835291602001916122d5565b820191906000526020600020905b8154815290600101906020018083116122b857829003601f168201915b5050505050908060040154908060050180546122f0906154da565b80601f016020809104026020016040519081016040528092919081815260200182805461231c906154da565b80156123695780601f1061233e57610100808354040283529160200191612369565b820191906000526020600020905b81548152906001019060200180831161234c57829003601f168201915b5050505050908060060160009054906101000a900460ff16908060060160019054906101000a900473ffffffffffffffffffffffffffffffffffffffff16908060070154908060080180546123bd906154da565b80601f01602080910402602001604051908101604052809291908181526020018280546123e9906154da565b80156124365780601f1061240b57610100808354040283529160200191612436565b820191906000526020600020905b81548152906001019060200180831161241957829003601f168201915b505050505090508a565b60008073ffffffffffffffffffffffffffffffffffffffff168273ffffffffffffffffffffffffffffffffffffffff16036124b0576040517f08c379a00000000000000000000000000000000000000000000000000000000081526004016124a790615fa6565b60405180910390fd5b600360008373ffffffffffffffffffffffffffffffffffffffff1673ffffffffffffffffffffffffffffffffffffffff168152602001908152602001600020549050919050565b6124ff613190565b61250960006136cd565b565b600061251760096130c1565b905090565b6000600760009054906101000a900473ffffffffffffffffffffffffffffffffffffffff16905090565b606060018054612555906154da565b80601f0160208091040260200160405190810160405280929190818152602001828054612581906154da565b80156125ce5780601f106125a3576101008083540402835291602001916125ce565b820191906000526020600020905b8154815290600101906020018083116125b157829003601f168201915b5050505050905090565b6060600b60003373ffffffffffffffffffffffffffffffffffffffff1673ffffffffffffffffffffffffffffffffffffffff16815260200190815260200160002060020160009054906101000a900460ff16612669576040517f08c379a000000000000000000000000000000000000000000000000000000000815260040161266090615891565b60405180910390fd5b61267161359c565b6000885190508751811480156126875750865181145b80156126935750855181145b801561269f5750845181145b80156126ab5750835181145b80156126b75750825181145b6126f6576040517f08c379a00000000000000000000000000000000000000000000000000000000081526004016126ed90616012565b60405180910390fd5b603281111561273a576040517f08c379a00000000000000000000000000000000000000000000000000000000081526004016127319061607e565b60405180910390fd5b60008167ffffffffffffffff8111156127565761275561457d565b5b6040519080825280602002602001820160405280156127845781602001602082028036833780820191505090505b50905060005b82811015612889576128578b82815181106127a8576127a761609e565b5b60200260200101518b83815181106127c3576127c261609e565b5b60200260200101518b84815181106127de576127dd61609e565b5b60200260200101518b85815181106127f9576127f861609e565b5b60200260200101518b86815181106128145761281361609e565b5b60200260200101518b878151811061282f5761282e61609e565b5b60200260200101518b888151811061284a5761284961609e565b5b60200260200101516117f0565b82828151811061286a5761286961609e565b5b602002602001018181525050808061288190615647565b91505061278a565b5080925050506128976136c3565b979650505050505050565b6128b46128ad6130cf565b8383613793565b5050565b600b6020528060005260406000206000915090508060000180546128db906154da565b80601f0160208091040260200160405190810160405280929190818152602001828054612907906154da565b80156129545780601f1061292957610100808354040283529160200191612954565b820191906000526020600020905b81548152906001019060200180831161293757829003601f168201915b505050505090806001018054612969906154da565b80601f0160208091040260200160405190810160405280929190818152602001828054612995906154da565b80156129e25780601f106129b7576101008083540402835291602001916129e2565b820191906000526020600020905b8154815290600101906020018083116129c557829003601f168201915b5050505050908060020160009054906101000a900460ff16908060030154908060040154905085565b612a1c612a166130cf565b8361320e565b612a5b576040517f08c379a0000000000000000000000000000000000000000000000000000000008152600401612a5290615825565b60405180910390fd5b612a67848484846138ff565b50505050565b600c6020528160005260406000208181548110612a8957600080fd5b90600052602060002001600091509150505481565b600b60003373ffffffffffffffffffffffffffffffffffffffff1673ffffffffffffffffffffffffffffffffffffffff16815260200190815260200160002060020160009054906101000a900460ff1615612b2e576040517f08c379a0000000000000000000000000000000000000000000000000000000008152600401612b2590616119565b60405180910390fd5b6040518060a001604052808381526020018281526020016001151581526020014281526020016000815250600b60003373ffffffffffffffffffffffffffffffffffffffff1673ffffffffffffffffffffffffffffffffffffffff1681526020019081526020016000206000820151816000019081612bad9190615ce5565b506020820151816001019081612bc39190615ce5565b5060408201518160020160006101000a81548160ff02191690831515021790555060608201518160030155608082015181600401559050503373ffffffffffffffffffffffffffffffffffffffff167fa09ef0c5b609880c9223c311bcad10dca2e49107569bb3caee0288501ccda2cc83604051612c4191906144f5565b60405180910390a25050565b6060612c588261395b565b9050919050565b6060600080600080600b60008773ffffffffffffffffffffffffffffffffffffffff1673ffffffffffffffffffffffffffffffffffffffff1681526020019081526020016000206040518060a0016040529081600082018054612cc1906154da565b80601f0160208091040260200160405190810160405280929190818152602001828054612ced906154da565b8015612d3a5780601f10612d0f57610100808354040283529160200191612d3a565b820191906000526020600020905b815481529060010190602001808311612d1d57829003601f168201915b50505050508152602001600182018054612d53906154da565b80601f0160208091040260200160405190810160405280929190818152602001828054612d7f906154da565b8015612dcc5780601f10612da157610100808354040283529160200191612dcc565b820191906000526020600020905b815481529060010190602001808311612daf57829003601f168201915b505050505081526020016002820160009054906101000a900460ff1615151515815260200160038201548152602001600482015481525050905080600001518160400151826060015183608001519450945094509450509193509193565b6000600560008473ffffffffffffffffffffffffffffffffffffffff1673ffffffffffffffffffffffffffffffffffffffff16815260200190815260200160002060008373ffffffffffffffffffffffffffffffffffffffff1673ffffffffffffffffffffffffffffffffffffffff16815260200190815260200160002060009054906101000a900460ff16905092915050565b6060600c60008373ffffffffffffffffffffffffffffffffffffffff1673ffffffffffffffffffffffffffffffffffffffff168152602001908152602001600020805480602002602001604051908101604052809291908181526020018280548015612f4957602002820191906000526020600020905b815481526020019060010190808311612f35575b50505050509050919050565b612f5d613190565b600073ffffffffffffffffffffffffffffffffffffffff168173ffffffffffffffffffffffffffffffffffffffff1603612fcc576040517f08c379a0000000000000000000000000000000000000000000000000000000008152600401612fc3906161ab565b60405180910390fd5b612fd5816136cd565b50565b6000634906490660e01b7bffffffffffffffffffffffffffffffffffffffffffffffffffffffff1916827bffffffffffffffffffffffffffffffffffffffffffffffffffffffff19161480613032575061303182613a6d565b5b9050919050565b60006002600083815260200190815260200160002060009054906101000a900473ffffffffffffffffffffffffffffffffffffffff169050919050565b61307f81613b4f565b6130be576040517f08c379a00000000000000000000000000000000000000000000000000000000081526004016130b590615f14565b60405180910390fd5b50565b600081600001549050919050565b600033905090565b816004600083815260200190815260200160002060006101000a81548173ffffffffffffffffffffffffffffffffffffffff021916908373ffffffffffffffffffffffffffffffffffffffff160217905550808273ffffffffffffffffffffffffffffffffffffffff1661314a83612009565b73ffffffffffffffffffffffffffffffffffffffff167f8c5be1e5ebec7d5bd14f71427d1e84f3dd0314c0f7b2291e5b200ac8c7c3b92560405160405180910390a45050565b6131986130cf565b73ffffffffffffffffffffffffffffffffffffffff166131b661251c565b73ffffffffffffffffffffffffffffffffffffffff161461320c576040517f08c379a000000000000000000000000000000000000000000000000000000000815260040161320390616217565b60405180910390fd5b565b60008061321a83612009565b90508073ffffffffffffffffffffffffffffffffffffffff168473ffffffffffffffffffffffffffffffffffffffff16148061325c575061325b8185612e2a565b5b8061329a57508373ffffffffffffffffffffffffffffffffffffffff16613282846109d6565b73ffffffffffffffffffffffffffffffffffffffff16145b91505092915050565b8273ffffffffffffffffffffffffffffffffffffffff166132c382612009565b73ffffffffffffffffffffffffffffffffffffffff1614613319576040517f08c379a0000000000000000000000000000000000000000000000000000000008152600401613310906162a9565b60405180910390fd5b600073ffffffffffffffffffffffffffffffffffffffff168273ffffffffffffffffffffffffffffffffffffffff1603613388576040517f08c379a000000000000000000000000000000000000000000000000000000000815260040161337f9061633b565b60405180910390fd5b6133958383836001613b90565b8273ffffffffffffffffffffffffffffffffffffffff166133b582612009565b73ffffffffffffffffffffffffffffffffffffffff161461340b576040517f08c379a0000000000000000000000000000000000000000000000000000000008152600401613402906162a9565b60405180910390fd5b6004600082815260200190815260200160002060006101000a81549073ffffffffffffffffffffffffffffffffffffffff02191690556001600360008573ffffffffffffffffffffffffffffffffffffffff1673ffffffffffffffffffffffffffffffffffffffff168152602001908152602001600020600082825403925050819055506001600360008473ffffffffffffffffffffffffffffffffffffffff1673ffffffffffffffffffffffffffffffffffffffff16815260200190815260200160002060008282540192505081905550816002600083815260200190815260200160002060006101000a81548173ffffffffffffffffffffffffffffffffffffffff021916908373ffffffffffffffffffffffffffffffffffffffff160217905550808273ffffffffffffffffffffffffffffffffffffffff168473ffffffffffffffffffffffffffffffffffffffff167fddf252ad1be2c89b69c2b068fc378daa952ba7f163c4a11628f55a4df523b3ef60405160405180910390a46135978383836001613b96565b505050565b6002600854036135e1576040517f08c379a00000000000000000000000000000000000000000000000000000000081526004016135d8906163a7565b60405180910390fd5b6002600881905550565b6001816000016000828254019250508190555050565b61361b828260405180602001604052806000815250613b9c565b5050565b61362882613b4f565b613667576040517f08c379a000000000000000000000000000000000000000000000000000000000815260040161365e90616439565b60405180910390fd5b806006600084815260200190815260200160002090816136879190615ce5565b507ff8e1a15aba9398e019f0b49df1a4fde98ee17ae345cb5f6b5e2c27f5033e8ce7826040516136b79190614aee565b60405180910390a15050565b6001600881905550565b6000600760009054906101000a900473ffffffffffffffffffffffffffffffffffffffff16905081600760006101000a81548173ffffffffffffffffffffffffffffffffffffffff021916908373ffffffffffffffffffffffffffffffffffffffff1602179055508173ffffffffffffffffffffffffffffffffffffffff168173ffffffffffffffffffffffffffffffffffffffff167f8be0079c531659141344cd1fd0a4f28419497f9722a3daafe3b4186f6b6457e060405160405180910390a35050565b8173ffffffffffffffffffffffffffffffffffffffff168373ffffffffffffffffffffffffffffffffffffffff1603613801576040517f08c379a00000000000000000000000000000000000000000000000000000000081526004016137f8906164a5565b60405180910390fd5b80600560008573ffffffffffffffffffffffffffffffffffffffff1673ffffffffffffffffffffffffffffffffffffffff16815260200190815260200160002060008473ffffffffffffffffffffffffffffffffffffffff1673ffffffffffffffffffffffffffffffffffffffff16815260200190815260200160002060006101000a81548160ff0219169083151502179055508173ffffffffffffffffffffffffffffffffffffffff168373ffffffffffffffffffffffffffffffffffffffff167f17307eab39ab6107e8899845ad3d59bd9653f200f220920489ca2b5937696c31836040516138f291906143e7565b60405180910390a3505050565b61390a8484846132a3565b61391684848484613bf7565b613955576040517f08c379a000000000000000000000000000000000000000000000000000000000815260040161394c90616537565b60405180910390fd5b50505050565b606061396682613076565b6000600660008481526020019081526020016000208054613986906154da565b80601f01602080910402602001604051908101604052809291908181526020018280546139b2906154da565b80156139ff5780601f106139d4576101008083540402835291602001916139ff565b820191906000526020600020905b8154815290600101906020018083116139e257829003601f168201915b505050505090506000613a10613d7e565b90506000815103613a25578192505050613a68565b600082511115613a5a578082604051602001613a42929190616557565b60405160208183030381529060405292505050613a68565b613a6384613d95565b925050505b919050565b60007f80ac58cd000000000000000000000000000000000000000000000000000000007bffffffffffffffffffffffffffffffffffffffffffffffffffffffff1916827bffffffffffffffffffffffffffffffffffffffffffffffffffffffff19161480613b3857507f5b5e139f000000000000000000000000000000000000000000000000000000007bffffffffffffffffffffffffffffffffffffffffffffffffffffffff1916827bffffffffffffffffffffffffffffffffffffffffffffffffffffffff1916145b80613b485750613b4782613dfd565b5b9050919050565b60008073ffffffffffffffffffffffffffffffffffffffff16613b7183613039565b73ffffffffffffffffffffffffffffffffffffffff1614159050919050565b50505050565b50505050565b613ba68383613e67565b613bb36000848484613bf7565b613bf2576040517f08c379a0000000000000000000000000000000000000000000000000000000008152600401613be990616537565b60405180910390fd5b505050565b6000613c188473ffffffffffffffffffffffffffffffffffffffff16614084565b15613d71578373ffffffffffffffffffffffffffffffffffffffff1663150b7a02613c416130cf565b8786866040518563ffffffff1660e01b8152600401613c6394939291906165d0565b6020604051808303816000875af1925050508015613c9f57506040513d601f19601f82011682018060405250810190613c9c9190616631565b60015b613d21573d8060008114613ccf576040519150601f19603f3d011682016040523d82523d6000602084013e613cd4565b606091505b506000815103613d19576040517f08c379a0000000000000000000000000000000000000000000000000000000008152600401613d1090616537565b60405180910390fd5b805181602001fd5b63150b7a0260e01b7bffffffffffffffffffffffffffffffffffffffffffffffffffffffff1916817bffffffffffffffffffffffffffffffffffffffffffffffffffffffff191614915050613d76565b600190505b949350505050565b606060405180602001604052806000815250905090565b6060613da082613076565b6000613daa613d7e565b90506000815111613dca5760405180602001604052806000815250613df5565b80613dd4846140a7565b604051602001613de5929190616557565b6040516020818303038152906040525b915050919050565b60007f01ffc9a7000000000000000000000000000000000000000000000000000000007bffffffffffffffffffffffffffffffffffffffffffffffffffffffff1916827bffffffffffffffffffffffffffffffffffffffffffffffffffffffff1916149050919050565b600073ffffffffffffffffffffffffffffffffffffffff168273ffffffffffffffffffffffffffffffffffffffff1603613ed6576040517f08c379a0000000000000000000000000000000000000000000000000000000008152600401613ecd906166aa565b60405180910390fd5b613edf81613b4f565b15613f1f576040517f08c379a0000000000000000000000000000000000000000000000000000000008152600401613f1690616716565b60405180910390fd5b613f2d600083836001613b90565b613f3681613b4f565b15613f76576040517f08c379a0000000000000000000000000000000000000000000000000000000008152600401613f6d90616716565b60405180910390fd5b6001600360008473ffffffffffffffffffffffffffffffffffffffff1673ffffffffffffffffffffffffffffffffffffffff16815260200190815260200160002060008282540192505081905550816002600083815260200190815260200160002060006101000a81548173ffffffffffffffffffffffffffffffffffffffff021916908373ffffffffffffffffffffffffffffffffffffffff160217905550808273ffffffffffffffffffffffffffffffffffffffff16600073ffffffffffffffffffffffffffffffffffffffff167fddf252ad1be2c89b69c2b068fc378daa952ba7f163c4a11628f55a4df523b3ef60405160405180910390a4614080600083836001613b96565b5050565b6000808273ffffffffffffffffffffffffffffffffffffffff163b119050919050565b6060600060016140b684614175565b01905060008167ffffffffffffffff8111156140d5576140d461457d565b5b6040519080825280601f01601f1916602001820160405280156141075781602001600182028036833780820191505090505b509050600082602001820190505b60011561416a578080600190039150507f3031323334353637383961626364656600000000000000000000000000000000600a86061a8153600a858161415e5761415d616736565b5b04945060008503614115575b819350505050919050565b600080600090507a184f03e93ff9f4daa797ed6e38ed64bf6a1f01000000000000000083106141d3577a184f03e93ff9f4daa797ed6e38ed64bf6a1f01000000000000000083816141c9576141c8616736565b5b0492506040810190505b6d04ee2d6d415b85acef81000000008310614210576d04ee2d6d415b85acef8100000000838161420657614205616736565b5b0492506020810190505b662386f26fc10000831061423f57662386f26fc10000838161423557614234616736565b5b0492506010810190505b6305f5e1008310614268576305f5e100838161425e5761425d616736565b5b0492506008810190505b612710831061428d57612710838161428357614282616736565b5b0492506004810190505b606483106142b057606483816142a6576142a5616736565b5b0492506002810190505b600a83106142bf576001810190505b80915050919050565b604051806101400160405280606081526020016060815260200160608152602001606081526020016000815260200160608152602001600015158152602001600073ffffffffffffffffffffffffffffffffffffffff16815260200160008152602001606081525090565b6000604051905090565b600080fd5b600080fd5b60007fffffffff0000000000000000000000000000000000000000000000000000000082169050919050565b61437c81614347565b811461438757600080fd5b50565b60008135905061439981614373565b92915050565b6000602082840312156143b5576143b461433d565b5b60006143c38482850161438a565b91505092915050565b60008115159050919050565b6143e1816143cc565b82525050565b60006020820190506143fc60008301846143d8565b92915050565b6000819050919050565b61441581614402565b811461442057600080fd5b50565b6000813590506144328161440c565b92915050565b60006020828403121561444e5761444d61433d565b5b600061445c84828501614423565b91505092915050565b600081519050919050565b600082825260208201905092915050565b60005b8381101561449f578082015181840152602081019050614484565b60008484015250505050565b6000601f19601f8301169050919050565b60006144c782614465565b6144d18185614470565b93506144e1818560208601614481565b6144ea816144ab565b840191505092915050565b6000602082019050818103600083015261450f81846144bc565b905092915050565b600073ffffffffffffffffffffffffffffffffffffffff82169050919050565b600061454282614517565b9050919050565b61455281614537565b82525050565b600060208201905061456d6000830184614549565b92915050565b600080fd5b600080fd5b7f4e487b7100000000000000000000000000000000000000000000000000000000600052604160045260246000fd5b6145b5826144ab565b810181811067ffffffffffffffff821117156145d4576145d361457d565b5b80604052505050565b60006145e7614333565b90506145f382826145ac565b919050565b600067ffffffffffffffff8211156146135761461261457d565b5b61461c826144ab565b9050602081019050919050565b82818337600083830152505050565b600061464b614646846145f8565b6145dd565b90508281526020810184848401111561466757614666614578565b5b614672848285614629565b509392505050565b600082601f83011261468f5761468e614573565b5b813561469f848260208601614638565b91505092915050565b6000602082840312156146be576146bd61433d565b5b600082013567ffffffffffffffff8111156146dc576146db614342565b5b6146e88482850161467a565b91505092915050565b6146fa81614402565b82525050565b600082825260208201905092915050565b600061471c82614465565b6147268185614700565b9350614736818560208601614481565b61473f816144ab565b840191505092915050565b61475381614402565b82525050565b614762816143cc565b82525050565b61477181614537565b82525050565b60006101408301600083015184820360008601526147958282614711565b915050602083015184820360208601526147af8282614711565b915050604083015184820360408601526147c98282614711565b915050606083015184820360608601526147e38282614711565b91505060808301516147f8608086018261474a565b5060a083015184820360a08601526148108282614711565b91505060c083015161482560c0860182614759565b5060e083015161483860e0860182614768565b5061010083015161484d61010086018261474a565b506101208301518482036101208601526148678282614711565b9150508091505092915050565b600060608201905061488960008301866143d8565b61489660208301856146f1565b81810360408301526148a88184614777565b9050949350505050565b6148bb81614537565b81146148c657600080fd5b50565b6000813590506148d8816148b2565b92915050565b600080604083850312156148f5576148f461433d565b5b6000614903858286016148c9565b925050602061491485828601614423565b9150509250929050565b600060208201905081810360008301526149388184614777565b905092915050565b6000602082840312156149565761495561433d565b5b6000614964848285016148c9565b91505092915050565b6000806000606084860312156149865761498561433d565b5b6000614994868287016148c9565b93505060206149a5868287016148c9565b92505060406149b686828701614423565b9150509250925092565b600080600080600080600060e0888a0312156149df576149de61433d565b5b60006149ed8a828b016148c9565b975050602088013567ffffffffffffffff811115614a0e57614a0d614342565b5b614a1a8a828b0161467a565b965050604088013567ffffffffffffffff811115614a3b57614a3a614342565b5b614a478a828b0161467a565b955050606088013567ffffffffffffffff811115614a6857614a67614342565b5b614a748a828b0161467a565b945050608088013567ffffffffffffffff811115614a9557614a94614342565b5b614aa18a828b0161467a565b93505060a0614ab28a828b01614423565b92505060c088013567ffffffffffffffff811115614ad357614ad2614342565b5b614adf8a828b0161467a565b91505092959891949750929550565b6000602082019050614b0360008301846146f1565b92915050565b60008060408385031215614b2057614b1f61433d565b5b600083013567ffffffffffffffff811115614b3e57614b3d614342565b5b614b4a8582860161467a565b925050602083013567ffffffffffffffff811115614b6b57614b6a614342565b5b614b778582860161467a565b9150509250929050565b6000610140820190508181036000830152614b9c818d6144bc565b90508181036020830152614bb0818c6144bc565b90508181036040830152614bc4818b6144bc565b90508181036060830152614bd8818a6144bc565b9050614be760808301896146f1565b81810360a0830152614bf981886144bc565b9050614c0860c08301876143d8565b614c1560e0830186614549565b614c236101008301856146f1565b818103610120830152614c3681846144bc565b90509b9a5050505050505050505050565b600067ffffffffffffffff821115614c6257614c6161457d565b5b602082029050602081019050919050565b600080fd5b6000614c8b614c8684614c47565b6145dd565b90508083825260208201905060208402830185811115614cae57614cad614c73565b5b835b81811015614cd75780614cc388826148c9565b845260208401935050602081019050614cb0565b5050509392505050565b600082601f830112614cf657614cf5614573565b5b8135614d06848260208601614c78565b91505092915050565b600067ffffffffffffffff821115614d2a57614d2961457d565b5b602082029050602081019050919050565b6000614d4e614d4984614d0f565b6145dd565b90508083825260208201905060208402830185811115614d7157614d70614c73565b5b835b81811015614db857803567ffffffffffffffff811115614d9657614d95614573565b5b808601614da3898261467a565b85526020850194505050602081019050614d73565b5050509392505050565b600082601f830112614dd757614dd6614573565b5b8135614de7848260208601614d3b565b91505092915050565b600067ffffffffffffffff821115614e0b57614e0a61457d565b5b602082029050602081019050919050565b6000614e2f614e2a84614df0565b6145dd565b90508083825260208201905060208402830185811115614e5257614e51614c73565b5b835b81811015614e7b5780614e678882614423565b845260208401935050602081019050614e54565b5050509392505050565b600082601f830112614e9a57614e99614573565b5b8135614eaa848260208601614e1c565b91505092915050565b600080600080600080600060e0888a031215614ed257614ed161433d565b5b600088013567ffffffffffffffff811115614ef057614eef614342565b5b614efc8a828b01614ce1565b975050602088013567ffffffffffffffff811115614f1d57614f1c614342565b5b614f298a828b01614dc2565b965050604088013567ffffffffffffffff811115614f4a57614f49614342565b5b614f568a828b01614dc2565b955050606088013567ffffffffffffffff811115614f7757614f76614342565b5b614f838a828b01614dc2565b945050608088013567ffffffffffffffff811115614fa457614fa3614342565b5b614fb08a828b01614dc2565b93505060a088013567ffffffffffffffff811115614fd157614fd0614342565b5b614fdd8a828b01614e85565b92505060c088013567ffffffffffffffff811115614ffe57614ffd614342565b5b61500a8a828b01614dc2565b91505092959891949750929550565b600081519050919050565b600082825260208201905092915050565b6000819050602082019050919050565b6000615051838361474a565b60208301905092915050565b6000602082019050919050565b600061507582615019565b61507f8185615024565b935061508a83615035565b8060005b838110156150bb5781516150a28882615045565b97506150ad8361505d565b92505060018101905061508e565b5085935050505092915050565b600060208201905081810360008301526150e2818461506a565b905092915050565b6150f3816143cc565b81146150fe57600080fd5b50565b600081359050615110816150ea565b92915050565b6000806040838503121561512d5761512c61433d565b5b600061513b858286016148c9565b925050602061514c85828601615101565b9150509250929050565b600060a082019050818103600083015261517081886144bc565b9050818103602083015261518481876144bc565b905061519360408301866143d8565b6151a060608301856146f1565b6151ad60808301846146f1565b9695505050505050565b600067ffffffffffffffff8211156151d2576151d161457d565b5b6151db826144ab565b9050602081019050919050565b60006151fb6151f6846151b7565b6145dd565b90508281526020810184848401111561521757615216614578565b5b615222848285614629565b509392505050565b600082601f83011261523f5761523e614573565b5b813561524f8482602086016151e8565b91505092915050565b600080600080608085870312156152725761527161433d565b5b6000615280878288016148c9565b9450506020615291878288016148c9565b93505060406152a287828801614423565b925050606085013567ffffffffffffffff8111156152c3576152c2614342565b5b6152cf8782880161522a565b91505092959194509250565b600060808201905081810360008301526152f581876144bc565b905061530460208301866143d8565b61531160408301856146f1565b61531e60608301846146f1565b95945050505050565b6000806040838503121561533e5761533d61433d565b5b600061534c858286016148c9565b925050602061535d858286016148c9565b9150509250929050565b7f436572746966696361746520646f6573206e6f74206578697374000000000000600082015250565b600061539d601a83614470565b91506153a882615367565b602082019050919050565b600060208201905081810360008301526153cc81615390565b9050919050565b7f4e6f7420617574686f72697a6564000000000000000000000000000000000000600082015250565b6000615409600e83614470565b9150615414826153d3565b602082019050919050565b60006020820190508181036000830152615438816153fc565b9050919050565b7f4f6e6c7920697373756572206f72206f776e65722063616e207265766f6b6500600082015250565b6000615475601f83614470565b91506154808261543f565b602082019050919050565b600060208201905081810360008301526154a481615468565b9050919050565b7f4e487b7100000000000000000000000000000000000000000000000000000000600052602260045260246000fd5b600060028204905060018216806154f257607f821691505b602082108103615505576155046154ab565b5b50919050565b600081905092915050565b600061552182614465565b61552b818561550b565b935061553b818560208601614481565b80840191505092915050565b60006155538284615516565b915081905092915050565b600081905092915050565b60008190508160005260206000209050919050565b6000815461558b816154da565b615595818661555e565b945060018216600081146155b057600181146155c5576155f8565b60ff19831686528115158202860193506155f8565b6155ce85615569565b60005b838110156155f0578154818901526001820191506020810190506155d1565b838801955050505b50505092915050565b600061560d828461557e565b915081905092915050565b7f4e487b7100000000000000000000000000000000000000000000000000000000600052601160045260246000fd5b600061565282614402565b91507fffffffffffffffffffffffffffffffffffffffffffffffffffffffffffffffff820361568457615683615618565b5b600182019050919050565b7f4552433732313a20617070726f76616c20746f2063757272656e74206f776e6560008201527f7200000000000000000000000000000000000000000000000000000000000000602082015250565b60006156eb602183614470565b91506156f68261568f565b604082019050919050565b6000602082019050818103600083015261571a816156de565b9050919050565b7f4552433732313a20617070726f76652063616c6c6572206973206e6f7420746f60008201527f6b656e206f776e6572206f7220617070726f76656420666f7220616c6c000000602082015250565b600061577d603d83614470565b915061578882615721565b604082019050919050565b600060208201905081810360008301526157ac81615770565b9050919050565b7f4552433732313a2063616c6c6572206973206e6f7420746f6b656e206f776e6560008201527f72206f7220617070726f76656400000000000000000000000000000000000000602082015250565b600061580f602d83614470565b915061581a826157b3565b604082019050919050565b6000602082019050818103600083015261583e81615802565b9050919050565b7f496e737469747574696f6e206e6f7420617574686f72697a6564000000000000600082015250565b600061587b601a83614470565b915061588682615845565b602082019050919050565b600060208201905081810360008301526158aa8161586e565b9050919050565b7f496e76616c69642073747564656e742061646472657373000000000000000000600082015250565b60006158e7601783614470565b91506158f2826158b1565b602082019050919050565b60006020820190508181036000830152615916816158da565b9050919050565b7f53747564656e74206e616d652072657175697265640000000000000000000000600082015250565b6000615953601583614470565b915061595e8261591d565b602082019050919050565b6000602082019050818103600083015261598281615946565b9050919050565b7f436f75727365206e616d65207265717569726564000000000000000000000000600082015250565b60006159bf601483614470565b91506159ca82615989565b602082019050919050565b600060208201905081810360008301526159ee816159b2565b9050919050565b7f4950465320686173682072657175697265640000000000000000000000000000600082015250565b6000615a2b601283614470565b9150615a36826159f5565b602082019050919050565b60006020820190508181036000830152615a5a81615a1e565b9050919050565b7f4475706c69636174652063657274696669636174652068617368000000000000600082015250565b6000615a97601a83614470565b9150615aa282615a61565b602082019050919050565b60006020820190508181036000830152615ac681615a8a565b9050919050565b7f46757475726520636f6d706c6574696f6e206461746500000000000000000000600082015250565b6000615b03601683614470565b9150615b0e82615acd565b602082019050919050565b60006020820190508181036000830152615b3281615af6565b9050919050565b60008190508160005260206000209050919050565b60006020601f8301049050919050565b600082821b905092915050565b600060088302615b9b7fffffffffffffffffffffffffffffffffffffffffffffffffffffffffffffffff82615b5e565b615ba58683615b5e565b95508019841693508086168417925050509392505050565b6000819050919050565b6000615be2615bdd615bd884614402565b615bbd565b614402565b9050919050565b6000819050919050565b615bfc83615bc7565b615c10615c0882615be9565b848454615b6b565b825550505050565b600090565b615c25615c18565b615c30818484615bf3565b505050565b5b81811015615c5457615c49600082615c1d565b600181019050615c36565b5050565b601f821115615c9957615c6a81615b39565b615c7384615b4e565b81016020851015615c82578190505b615c96615c8e85615b4e565b830182615c35565b50505b505050565b600082821c905092915050565b6000615cbc60001984600802615c9e565b1980831691505092915050565b6000615cd58383615cab565b9150826002028217905092915050565b615cee82614465565b67ffffffffffffffff811115615d0757615d0661457d565b5b615d1182546154da565b615d1c828285615c58565b600060209050601f831160018114615d4f5760008415615d3d578287015190505b615d478582615cc9565b865550615daf565b601f198416615d5d86615b39565b60005b82811015615d8557848901518255600182019150602085019450602081019050615d60565b86831015615da25784890151615d9e601f891682615cab565b8355505b6001600288020188555050505b505050505050565b7f697066733a2f2f00000000000000000000000000000000000000000000000000600082015250565b6000615ded60078361550b565b9150615df882615db7565b600782019050919050565b6000615e0e82615de0565b9150615e1a8284615516565b915081905092915050565b60006040820190508181036000830152615e3f81856144bc565b90508181036020830152615e5381846144bc565b90509392505050565b7f4e616d6520726571756972656400000000000000000000000000000000000000600082015250565b6000615e92600d83614470565b9150615e9d82615e5c565b602082019050919050565b60006020820190508181036000830152615ec181615e85565b9050919050565b7f4552433732313a20696e76616c696420746f6b656e2049440000000000000000600082015250565b6000615efe601883614470565b9150615f0982615ec8565b602082019050919050565b60006020820190508181036000830152615f2d81615ef1565b9050919050565b7f4552433732313a2061646472657373207a65726f206973206e6f74206120766160008201527f6c6964206f776e65720000000000000000000000000000000000000000000000602082015250565b6000615f90602983614470565b9150615f9b82615f34565b604082019050919050565b60006020820190508181036000830152615fbf81615f83565b9050919050565b7f496e707574206172726179206c656e677468206d69736d617463680000000000600082015250565b6000615ffc601b83614470565b915061600782615fc6565b602082019050919050565b6000602082019050818103600083015261602b81615fef565b9050919050565b7f42617463682073697a6520746f6f206c61726765000000000000000000000000600082015250565b6000616068601483614470565b915061607382616032565b602082019050919050565b600060208201905081810360008301526160978161605b565b9050919050565b7f4e487b7100000000000000000000000000000000000000000000000000000000600052603260045260246000fd5b7f416c726561647920726567697374657265640000000000000000000000000000600082015250565b6000616103601283614470565b915061610e826160cd565b602082019050919050565b60006020820190508181036000830152616132816160f6565b9050919050565b7f4f776e61626c653a206e6577206f776e657220697320746865207a65726f206160008201527f6464726573730000000000000000000000000000000000000000000000000000602082015250565b6000616195602683614470565b91506161a082616139565b604082019050919050565b600060208201905081810360008301526161c481616188565b9050919050565b7f4f776e61626c653a2063616c6c6572206973206e6f7420746865206f776e6572600082015250565b6000616201602083614470565b915061620c826161cb565b602082019050919050565b60006020820190508181036000830152616230816161f4565b9050919050565b7f4552433732313a207472616e736665722066726f6d20696e636f72726563742060008201527f6f776e6572000000000000000000000000000000000000000000000000000000602082015250565b6000616293602583614470565b915061629e82616237565b604082019050919050565b600060208201905081810360008301526162c281616286565b9050919050565b7f4552433732313a207472616e7366657220746f20746865207a65726f2061646460008201527f7265737300000000000000000000000000000000000000000000000000000000602082015250565b6000616325602483614470565b9150616330826162c9565b604082019050919050565b6000602082019050818103600083015261635481616318565b9050919050565b7f5265656e7472616e637947756172643a207265656e7472616e742063616c6c00600082015250565b6000616391601f83614470565b915061639c8261635b565b602082019050919050565b600060208201905081810360008301526163c081616384565b9050919050565b7f45524337323155524953746f726167653a2055524920736574206f66206e6f6e60008201527f6578697374656e7420746f6b656e000000000000000000000000000000000000602082015250565b6000616423602e83614470565b915061642e826163c7565b604082019050919050565b6000602082019050818103600083015261645281616416565b9050919050565b7f4552433732313a20617070726f766520746f2063616c6c657200000000000000600082015250565b600061648f601983614470565b915061649a82616459565b602082019050919050565b600060208201905081810360008301526164be81616482565b9050919050565b7f4552433732313a207472616e7366657220746f206e6f6e20455243373231526560008201527f63656976657220696d706c656d656e7465720000000000000000000000000000602082015250565b6000616521603283614470565b915061652c826164c5565b604082019050919050565b6000602082019050818103600083015261655081616514565b9050919050565b60006165638285615516565b915061656f8284615516565b91508190509392505050565b600081519050919050565b600082825260208201905092915050565b60006165a28261657b565b6165ac8185616586565b93506165bc818560208601614481565b6165c5816144ab565b840191505092915050565b60006080820190506165e56000830187614549565b6165f26020830186614549565b6165ff60408301856146f1565b81810360608301526166118184616597565b905095945050505050565b60008151905061662b81614373565b92915050565b6000602082840312156166475761664661433d565b5b60006166558482850161661c565b91505092915050565b7f4552433732313a206d696e7420746f20746865207a65726f2061646472657373600082015250565b6000616694602083614470565b915061669f8261665e565b602082019050919050565b600060208201905081810360008301526166c381616687565b9050919050565b7f4552433732313a20746f6b656e20616c7265616479206d696e74656400000000600082015250565b6000616700601c83614470565b915061670b826166ca565b602082019050919050565b6000602082019050818103600083015261672f816166f3565b9050919050565b7f4e487b7100000000000000000000000000000000000000000000000000000000600052601260045260246000fdfea264697066735822122042ce3d2e7aa7e4544d131cb3698c594b88833d06c347c187535a822eb9d392a364736f6c63430008130033",
  "linkReferences": {},
  "deployedLinkReferences": {}
}